{
  "contractName": "Bridge",
  "abi": [
    {
      "inputs": [
        {
          "internalType": "uint8",
          "name": "chainID",
          "type": "uint8"
        },
        {
          "internalType": "address[]",
          "name": "initialRelayers",
          "type": "address[]"
        },
        {
          "internalType": "uint256",
          "name": "initialRelayerThreshold",
          "type": "uint256"
        },
        {
          "internalType": "uint256",
          "name": "fee",
          "type": "uint256"
        },
        {
          "internalType": "uint256",
          "name": "expiry",
          "type": "uint256"
        }
      ],
      "stateMutability": "nonpayable",
      "type": "constructor"
    },
    {
      "anonymous": false,
      "inputs": [
        {
          "indexed": true,
          "internalType": "uint8",
          "name": "destinationChainID",
          "type": "uint8"
        },
        {
          "indexed": true,
          "internalType": "bytes32",
          "name": "resourceID",
          "type": "bytes32"
        },
        {
          "indexed": true,
          "internalType": "uint64",
          "name": "depositNonce",
          "type": "uint64"
        }
      ],
      "name": "Deposit",
      "type": "event"
    },
    {
      "anonymous": false,
      "inputs": [
        {
          "indexed": false,
          "internalType": "address",
          "name": "account",
          "type": "address"
        }
      ],
      "name": "Paused",
      "type": "event"
    },
    {
      "anonymous": false,
      "inputs": [
        {
          "indexed": true,
          "internalType": "uint8",
          "name": "originChainID",
          "type": "uint8"
        },
        {
          "indexed": true,
          "internalType": "uint64",
          "name": "depositNonce",
          "type": "uint64"
        },
        {
          "indexed": true,
          "internalType": "enum Bridge.ProposalStatus",
          "name": "status",
          "type": "uint8"
        },
        {
          "indexed": false,
          "internalType": "bytes32",
          "name": "resourceID",
          "type": "bytes32"
        },
        {
          "indexed": false,
          "internalType": "bytes32",
          "name": "dataHash",
          "type": "bytes32"
        }
      ],
      "name": "ProposalEvent",
      "type": "event"
    },
    {
      "anonymous": false,
      "inputs": [
        {
          "indexed": true,
          "internalType": "uint8",
          "name": "originChainID",
          "type": "uint8"
        },
        {
          "indexed": true,
          "internalType": "uint64",
          "name": "depositNonce",
          "type": "uint64"
        },
        {
          "indexed": true,
          "internalType": "enum Bridge.ProposalStatus",
          "name": "status",
          "type": "uint8"
        },
        {
          "indexed": false,
          "internalType": "bytes32",
          "name": "resourceID",
          "type": "bytes32"
        }
      ],
      "name": "ProposalVote",
      "type": "event"
    },
    {
      "anonymous": false,
      "inputs": [
        {
          "indexed": true,
          "internalType": "address",
          "name": "relayer",
          "type": "address"
        }
      ],
      "name": "RelayerAdded",
      "type": "event"
    },
    {
      "anonymous": false,
      "inputs": [
        {
          "indexed": true,
          "internalType": "address",
          "name": "relayer",
          "type": "address"
        }
      ],
      "name": "RelayerRemoved",
      "type": "event"
    },
    {
      "anonymous": false,
      "inputs": [
        {
          "indexed": true,
          "internalType": "uint256",
          "name": "newThreshold",
          "type": "uint256"
        }
      ],
      "name": "RelayerThresholdChanged",
      "type": "event"
    },
    {
      "anonymous": false,
      "inputs": [
        {
          "indexed": true,
          "internalType": "bytes32",
          "name": "role",
          "type": "bytes32"
        },
        {
          "indexed": true,
          "internalType": "bytes32",
          "name": "previousAdminRole",
          "type": "bytes32"
        },
        {
          "indexed": true,
          "internalType": "bytes32",
          "name": "newAdminRole",
          "type": "bytes32"
        }
      ],
      "name": "RoleAdminChanged",
      "type": "event"
    },
    {
      "anonymous": false,
      "inputs": [
        {
          "indexed": true,
          "internalType": "bytes32",
          "name": "role",
          "type": "bytes32"
        },
        {
          "indexed": true,
          "internalType": "address",
          "name": "account",
          "type": "address"
        },
        {
          "indexed": true,
          "internalType": "address",
          "name": "sender",
          "type": "address"
        }
      ],
      "name": "RoleGranted",
      "type": "event"
    },
    {
      "anonymous": false,
      "inputs": [
        {
          "indexed": true,
          "internalType": "bytes32",
          "name": "role",
          "type": "bytes32"
        },
        {
          "indexed": true,
          "internalType": "address",
          "name": "account",
          "type": "address"
        },
        {
          "indexed": true,
          "internalType": "address",
          "name": "sender",
          "type": "address"
        }
      ],
      "name": "RoleRevoked",
      "type": "event"
    },
    {
      "anonymous": false,
      "inputs": [
        {
          "indexed": false,
          "internalType": "address",
          "name": "account",
          "type": "address"
        }
      ],
      "name": "Unpaused",
      "type": "event"
    },
    {
      "inputs": [],
      "name": "DEFAULT_ADMIN_ROLE",
      "outputs": [
        {
          "internalType": "bytes32",
          "name": "",
          "type": "bytes32"
        }
      ],
      "stateMutability": "view",
      "type": "function"
    },
    {
      "inputs": [],
      "name": "RELAYER_ROLE",
      "outputs": [
        {
          "internalType": "bytes32",
          "name": "",
          "type": "bytes32"
        }
      ],
      "stateMutability": "view",
      "type": "function"
    },
    {
      "inputs": [],
      "name": "_chainID",
      "outputs": [
        {
          "internalType": "uint8",
          "name": "",
          "type": "uint8"
        }
      ],
      "stateMutability": "view",
      "type": "function"
    },
    {
      "inputs": [
        {
          "internalType": "uint8",
          "name": "",
          "type": "uint8"
        }
      ],
      "name": "_depositCounts",
      "outputs": [
        {
          "internalType": "uint64",
          "name": "",
          "type": "uint64"
        }
      ],
      "stateMutability": "view",
      "type": "function"
    },
    {
      "inputs": [
        {
          "internalType": "uint64",
          "name": "",
          "type": "uint64"
        },
        {
          "internalType": "uint8",
          "name": "",
          "type": "uint8"
        }
      ],
      "name": "_depositRecords",
      "outputs": [
        {
          "internalType": "bytes",
          "name": "",
          "type": "bytes"
        }
      ],
      "stateMutability": "view",
      "type": "function"
    },
    {
      "inputs": [],
      "name": "_expiry",
      "outputs": [
        {
          "internalType": "uint256",
          "name": "",
          "type": "uint256"
        }
      ],
      "stateMutability": "view",
      "type": "function"
    },
    {
      "inputs": [],
      "name": "_fee",
      "outputs": [
        {
          "internalType": "uint256",
          "name": "",
          "type": "uint256"
        }
      ],
      "stateMutability": "view",
      "type": "function"
    },
    {
      "inputs": [
        {
          "internalType": "uint72",
          "name": "",
          "type": "uint72"
        },
        {
          "internalType": "bytes32",
          "name": "",
          "type": "bytes32"
        },
        {
          "internalType": "address",
          "name": "",
          "type": "address"
        }
      ],
      "name": "_hasVotedOnProposal",
      "outputs": [
        {
          "internalType": "bool",
          "name": "",
          "type": "bool"
        }
      ],
      "stateMutability": "view",
      "type": "function"
    },
    {
      "inputs": [
        {
          "internalType": "uint72",
          "name": "",
          "type": "uint72"
        },
        {
          "internalType": "bytes32",
          "name": "",
          "type": "bytes32"
        }
      ],
      "name": "_proposals",
      "outputs": [
        {
          "internalType": "bytes32",
          "name": "_resourceID",
          "type": "bytes32"
        },
        {
          "internalType": "bytes32",
          "name": "_dataHash",
          "type": "bytes32"
        },
        {
          "internalType": "enum Bridge.ProposalStatus",
          "name": "_status",
          "type": "uint8"
        },
        {
          "internalType": "uint256",
          "name": "_proposedBlock",
          "type": "uint256"
        }
      ],
      "stateMutability": "view",
      "type": "function"
    },
    {
      "inputs": [],
      "name": "_relayerThreshold",
      "outputs": [
        {
          "internalType": "uint256",
          "name": "",
          "type": "uint256"
        }
      ],
      "stateMutability": "view",
      "type": "function"
    },
    {
      "inputs": [
        {
          "internalType": "bytes32",
          "name": "",
          "type": "bytes32"
        }
      ],
      "name": "_resourceIDToHandlerAddress",
      "outputs": [
        {
          "internalType": "address",
          "name": "",
          "type": "address"
        }
      ],
      "stateMutability": "view",
      "type": "function"
    },
    {
      "inputs": [],
      "name": "_totalProposals",
      "outputs": [
        {
          "internalType": "uint256",
          "name": "",
          "type": "uint256"
        }
      ],
      "stateMutability": "view",
      "type": "function"
    },
    {
      "inputs": [],
      "name": "_totalRelayers",
      "outputs": [
        {
          "internalType": "uint256",
          "name": "",
          "type": "uint256"
        }
      ],
      "stateMutability": "view",
      "type": "function"
    },
    {
      "inputs": [
        {
          "internalType": "bytes32",
          "name": "role",
          "type": "bytes32"
        }
      ],
      "name": "getRoleAdmin",
      "outputs": [
        {
          "internalType": "bytes32",
          "name": "",
          "type": "bytes32"
        }
      ],
      "stateMutability": "view",
      "type": "function"
    },
    {
      "inputs": [
        {
          "internalType": "bytes32",
          "name": "role",
          "type": "bytes32"
        },
        {
          "internalType": "address",
          "name": "account",
          "type": "address"
        }
      ],
      "name": "grantRole",
      "outputs": [],
      "stateMutability": "nonpayable",
      "type": "function"
    },
    {
      "inputs": [
        {
          "internalType": "bytes32",
          "name": "role",
          "type": "bytes32"
        },
        {
          "internalType": "address",
          "name": "account",
          "type": "address"
        }
      ],
      "name": "hasRole",
      "outputs": [
        {
          "internalType": "bool",
          "name": "",
          "type": "bool"
        }
      ],
      "stateMutability": "view",
      "type": "function"
    },
    {
      "inputs": [],
      "name": "paused",
      "outputs": [
        {
          "internalType": "bool",
          "name": "",
          "type": "bool"
        }
      ],
      "stateMutability": "view",
      "type": "function"
    },
    {
      "inputs": [
        {
          "internalType": "bytes32",
          "name": "role",
          "type": "bytes32"
        },
        {
          "internalType": "address",
          "name": "account",
          "type": "address"
        }
      ],
      "name": "renounceRole",
      "outputs": [],
      "stateMutability": "nonpayable",
      "type": "function"
    },
    {
      "inputs": [
        {
          "internalType": "bytes32",
          "name": "role",
          "type": "bytes32"
        },
        {
          "internalType": "address",
          "name": "account",
          "type": "address"
        }
      ],
      "name": "revokeRole",
      "outputs": [],
      "stateMutability": "nonpayable",
      "type": "function"
    },
    {
      "inputs": [
        {
          "internalType": "bytes4",
          "name": "interfaceId",
          "type": "bytes4"
        }
      ],
      "name": "supportsInterface",
      "outputs": [
        {
          "internalType": "bool",
          "name": "",
          "type": "bool"
        }
      ],
      "stateMutability": "view",
      "type": "function"
    },
    {
      "inputs": [
        {
          "internalType": "address",
          "name": "relayer",
          "type": "address"
        }
      ],
      "name": "isRelayer",
      "outputs": [
        {
          "internalType": "bool",
          "name": "",
          "type": "bool"
        }
      ],
      "stateMutability": "view",
      "type": "function"
    },
    {
      "inputs": [
        {
          "internalType": "address",
          "name": "newAdmin",
          "type": "address"
        }
      ],
      "name": "renounceAdmin",
      "outputs": [],
      "stateMutability": "nonpayable",
      "type": "function"
    },
    {
      "inputs": [],
      "name": "adminPauseTransfers",
      "outputs": [],
      "stateMutability": "nonpayable",
      "type": "function"
    },
    {
      "inputs": [],
      "name": "adminUnpauseTransfers",
      "outputs": [],
      "stateMutability": "nonpayable",
      "type": "function"
    },
    {
      "inputs": [
        {
          "internalType": "uint256",
          "name": "newThreshold",
          "type": "uint256"
        }
      ],
      "name": "adminChangeRelayerThreshold",
      "outputs": [],
      "stateMutability": "nonpayable",
      "type": "function"
    },
    {
      "inputs": [
        {
          "internalType": "address",
          "name": "relayerAddress",
          "type": "address"
        }
      ],
      "name": "adminAddRelayer",
      "outputs": [],
      "stateMutability": "nonpayable",
      "type": "function"
    },
    {
      "inputs": [
        {
          "internalType": "address",
          "name": "relayerAddress",
          "type": "address"
        }
      ],
      "name": "adminRemoveRelayer",
      "outputs": [],
      "stateMutability": "nonpayable",
      "type": "function"
    },
    {
      "inputs": [
        {
          "internalType": "address",
          "name": "handlerAddress",
          "type": "address"
        },
        {
          "internalType": "bytes32",
          "name": "resourceID",
          "type": "bytes32"
        },
        {
          "internalType": "address",
          "name": "tokenAddress",
          "type": "address"
        }
      ],
      "name": "adminSetResource",
      "outputs": [],
      "stateMutability": "nonpayable",
      "type": "function"
    },
    {
      "inputs": [
        {
          "internalType": "address",
          "name": "handlerAddress",
          "type": "address"
        },
        {
          "internalType": "address",
          "name": "tokenAddress",
          "type": "address"
        }
      ],
      "name": "adminSetBurnable",
      "outputs": [],
      "stateMutability": "nonpayable",
      "type": "function"
    },
    {
      "inputs": [
        {
          "internalType": "uint8",
          "name": "originChainID",
          "type": "uint8"
        },
        {
          "internalType": "uint64",
          "name": "depositNonce",
          "type": "uint64"
        },
        {
          "internalType": "bytes32",
          "name": "dataHash",
          "type": "bytes32"
        }
      ],
      "name": "getProposal",
      "outputs": [
        {
          "components": [
            {
              "internalType": "bytes32",
              "name": "_resourceID",
              "type": "bytes32"
            },
            {
              "internalType": "bytes32",
              "name": "_dataHash",
              "type": "bytes32"
            },
            {
              "internalType": "address[]",
              "name": "_yesVotes",
              "type": "address[]"
            },
            {
              "internalType": "address[]",
              "name": "_noVotes",
              "type": "address[]"
            },
            {
              "internalType": "enum Bridge.ProposalStatus",
              "name": "_status",
              "type": "uint8"
            },
            {
              "internalType": "uint256",
              "name": "_proposedBlock",
              "type": "uint256"
            }
          ],
          "internalType": "struct Bridge.Proposal",
          "name": "",
          "type": "tuple"
        }
      ],
      "stateMutability": "view",
      "type": "function"
    },
    {
      "inputs": [
        {
          "internalType": "uint256",
          "name": "newFee",
          "type": "uint256"
        }
      ],
      "name": "adminChangeFee",
      "outputs": [],
      "stateMutability": "nonpayable",
      "type": "function"
    },
    {
      "inputs": [
        {
          "internalType": "address",
          "name": "handlerAddress",
          "type": "address"
        },
        {
          "internalType": "address",
          "name": "tokenAddress",
          "type": "address"
        },
        {
          "internalType": "address",
          "name": "recipient",
          "type": "address"
        },
        {
          "internalType": "uint256",
          "name": "amount",
          "type": "uint256"
        }
      ],
      "name": "adminWithdraw",
      "outputs": [],
      "stateMutability": "nonpayable",
      "type": "function"
    },
    {
      "inputs": [
        {
          "internalType": "uint8",
          "name": "destinationChainID",
          "type": "uint8"
        },
        {
          "internalType": "bytes32",
          "name": "resourceID",
          "type": "bytes32"
        },
        {
          "internalType": "bytes",
          "name": "data",
          "type": "bytes"
        }
      ],
      "name": "deposit",
      "outputs": [],
      "stateMutability": "payable",
      "type": "function"
    },
    {
      "inputs": [
        {
          "internalType": "uint8",
          "name": "chainID",
          "type": "uint8"
        },
        {
          "internalType": "uint64",
          "name": "depositNonce",
          "type": "uint64"
        },
        {
          "internalType": "bytes32",
          "name": "resourceID",
          "type": "bytes32"
        },
        {
          "internalType": "bytes32",
          "name": "dataHash",
          "type": "bytes32"
        }
      ],
      "name": "voteProposal",
      "outputs": [],
      "stateMutability": "nonpayable",
      "type": "function"
    },
    {
      "inputs": [
        {
          "internalType": "uint8",
          "name": "chainID",
          "type": "uint8"
        },
        {
          "internalType": "uint64",
          "name": "depositNonce",
          "type": "uint64"
        },
        {
          "internalType": "bytes32",
          "name": "dataHash",
          "type": "bytes32"
        }
      ],
      "name": "cancelProposal",
      "outputs": [],
      "stateMutability": "nonpayable",
      "type": "function"
    },
    {
      "inputs": [
        {
          "internalType": "uint8",
          "name": "chainID",
          "type": "uint8"
        },
        {
          "internalType": "uint64",
          "name": "depositNonce",
          "type": "uint64"
        },
        {
          "internalType": "bytes",
          "name": "data",
          "type": "bytes"
        },
        {
          "internalType": "bytes32",
          "name": "resourceID",
          "type": "bytes32"
        }
      ],
      "name": "executeProposal",
      "outputs": [],
      "stateMutability": "nonpayable",
      "type": "function"
    },
    {
      "inputs": [
        {
          "internalType": "address payable[]",
          "name": "addrs",
          "type": "address[]"
        },
        {
          "internalType": "uint256[]",
          "name": "amounts",
          "type": "uint256[]"
        }
      ],
      "name": "transferFunds",
      "outputs": [],
      "stateMutability": "nonpayable",
      "type": "function"
    }
  ],
  "bytecode": "0x60806040523480156200001157600080fd5b5060405162005a6138038062005a618339818101604052810190620000379190620008a2565b60008060006101000a81548160ff02191690831515021790555084600260006101000a81548160ff021916908360ff160217905550826003819055508160068190555080600781905550620000966000801b336200018d60201b60201c565b620000cb7fe2b7fb3b832174769106daebcfd6d1970523240dda11281102db9363b83b0dc46000801b620001a360201b60201c565b60008451905060005b818110156200018057620001507fe2b7fb3b832174769106daebcfd6d1970523240dda11281102db9363b83b0dc48783815181106200013c577f4e487b7100000000000000000000000000000000000000000000000000000000600052603260045260246000fd5b60200260200101516200020760201b60201c565b60046000815480929190620001659062000cfb565b91905055508080620001779062000cfb565b915050620000d4565b5050505050505062000e06565b6200019f82826200024060201b60201c565b5050565b6000620001b6836200033160201b60201c565b90508160016000858152602001908152602001600020600101819055508181847fbd79b86ffe0ab8e8776151514217cd7cacd52c909f66475c3af44e129f0b00ff60405160405180910390a4505050565b62000218826200033160201b60201c565b62000229816200035160201b60201c565b6200023b83836200024060201b60201c565b505050565b6200025282826200037560201b60201c565b6200032d57600180600084815260200190815260200160002060000160008373ffffffffffffffffffffffffffffffffffffffff1673ffffffffffffffffffffffffffffffffffffffff16815260200190815260200160002060006101000a81548160ff021916908315150217905550620002d2620003e060201b60201c565b73ffffffffffffffffffffffffffffffffffffffff168173ffffffffffffffffffffffffffffffffffffffff16837f2f8788117e7eff1d82e926ec794901d17c78024a50270940304540a733656f0d60405160405180910390a45b5050565b600060016000838152602001908152602001600020600101549050919050565b620003728162000366620003e060201b60201c565b620003e860201b60201c565b50565b60006001600084815260200190815260200160002060000160008373ffffffffffffffffffffffffffffffffffffffff1673ffffffffffffffffffffffffffffffffffffffff16815260200190815260200160002060009054906101000a900460ff16905092915050565b600033905090565b620003fa82826200037560201b60201c565b620004a8576200042d8173ffffffffffffffffffffffffffffffffffffffff166014620004ac60201b620027801760201c565b620004488360001c6020620004ac60201b620027801760201c565b6040516020016200045b92919062000a7b565b6040516020818303038152906040526040517f08c379a00000000000000000000000000000000000000000000000000000000081526004016200049f919062000abd565b60405180910390fd5b5050565b606060006002836002620004c1919062000bea565b620004cd919062000b8d565b67ffffffffffffffff8111156200050d577f4e487b7100000000000000000000000000000000000000000000000000000000600052604160045260246000fd5b6040519080825280601f01601f191660200182016040528015620005405781602001600182028036833780820191505090505b5090507f3000000000000000000000000000000000000000000000000000000000000000816000815181106200059f577f4e487b7100000000000000000000000000000000000000000000000000000000600052603260045260246000fd5b60200101907effffffffffffffffffffffffffffffffffffffffffffffffffffffffffffff1916908160001a9053507f7800000000000000000000000000000000000000000000000000000000000000816001815181106200062a577f4e487b7100000000000000000000000000000000000000000000000000000000600052603260045260246000fd5b60200101907effffffffffffffffffffffffffffffffffffffffffffffffffffffffffffff1916908160001a905350600060018460026200066c919062000bea565b62000678919062000b8d565b90505b60018111156200076a577f3031323334353637383961626364656600000000000000000000000000000000600f861660108110620006e2577f4e487b7100000000000000000000000000000000000000000000000000000000600052603260045260246000fd5b1a60f81b82828151811062000720577f4e487b7100000000000000000000000000000000000000000000000000000000600052603260045260246000fd5b60200101907effffffffffffffffffffffffffffffffffffffffffffffffffffffffffffff1916908160001a905350600485901c945080620007629062000ccc565b90506200067b565b5060008414620007b1576040517f08c379a0000000000000000000000000000000000000000000000000000000008152600401620007a89062000ae1565b60405180910390fd5b8091505092915050565b6000620007d2620007cc8462000b37565b62000b03565b90508083825260208201905082856020860282011115620007f257600080fd5b60005b858110156200082657816200080b888262000830565b845260208401935060208301925050600181019050620007f5565b5050509392505050565b600081519050620008418162000db8565b92915050565b600082601f8301126200085957600080fd5b81516200086b848260208601620007bb565b91505092915050565b600081519050620008858162000dd2565b92915050565b6000815190506200089c8162000dec565b92915050565b600080600080600060a08688031215620008bb57600080fd5b6000620008cb888289016200088b565b955050602086015167ffffffffffffffff811115620008e957600080fd5b620008f78882890162000847565b94505060406200090a8882890162000874565b93505060606200091d8882890162000874565b9250506080620009308882890162000874565b9150509295509295909350565b60006200094a8262000b66565b62000956818562000b71565b93506200096881856020860162000c96565b620009738162000da7565b840191505092915050565b60006200098b8262000b66565b62000997818562000b82565b9350620009a981856020860162000c96565b80840191505092915050565b6000620009c460208362000b71565b91507f537472696e67733a20686578206c656e67746820696e73756666696369656e746000830152602082019050919050565b600062000a0660178362000b82565b91507f416363657373436f6e74726f6c3a206163636f756e74200000000000000000006000830152601782019050919050565b600062000a4860118362000b82565b91507f206973206d697373696e6720726f6c65200000000000000000000000000000006000830152601182019050919050565b600062000a8882620009f7565b915062000a9682856200097e565b915062000aa38262000a39565b915062000ab182846200097e565b91508190509392505050565b6000602082019050818103600083015262000ad981846200093d565b905092915050565b6000602082019050818103600083015262000afc81620009b5565b9050919050565b6000604051905081810181811067ffffffffffffffff8211171562000b2d5762000b2c62000d78565b5b8060405250919050565b600067ffffffffffffffff82111562000b555762000b5462000d78565b5b602082029050602081019050919050565b600081519050919050565b600082825260208201905092915050565b600081905092915050565b600062000b9a8262000c7f565b915062000ba78362000c7f565b9250827fffffffffffffffffffffffffffffffffffffffffffffffffffffffffffffffff0382111562000bdf5762000bde62000d49565b5b828201905092915050565b600062000bf78262000c7f565b915062000c048362000c7f565b9250817fffffffffffffffffffffffffffffffffffffffffffffffffffffffffffffffff048311821515161562000c405762000c3f62000d49565b5b828202905092915050565b600062000c588262000c5f565b9050919050565b600073ffffffffffffffffffffffffffffffffffffffff82169050919050565b6000819050919050565b600060ff82169050919050565b60005b8381101562000cb657808201518184015260208101905062000c99565b8381111562000cc6576000848401525b50505050565b600062000cd98262000c7f565b9150600082141562000cf05762000cef62000d49565b5b600182039050919050565b600062000d088262000c7f565b91507fffffffffffffffffffffffffffffffffffffffffffffffffffffffffffffffff82141562000d3e5762000d3d62000d49565b5b600182019050919050565b7f4e487b7100000000000000000000000000000000000000000000000000000000600052601160045260246000fd5b7f4e487b7100000000000000000000000000000000000000000000000000000000600052604160045260246000fd5b6000601f19601f8301169050919050565b62000dc38162000c4b565b811462000dcf57600080fd5b50565b62000ddd8162000c7f565b811462000de957600080fd5b50565b62000df78162000c89565b811462000e0357600080fd5b50565b614c4b8062000e166000396000f3fe60806040526004361061021a5760003560e01c8063802aabe811610123578063a217fddf116100ab578063cb10f2151161006f578063cb10f215146107fb578063cdb0f73a14610824578063d547741f1461084d578063d7a9cd7914610876578063ffaac0eb146108a15761021a565b8063a217fddf14610712578063a9cf69fa1461073d578063beab71311461077a578063c5b37c22146107a5578063c5ec8970146107d05761021a565b806391c404ac116100f257806391c404ac1461062d57806391d1485414610656578063926d7d7f146106935780639d5773e0146106be5780639d82dd63146106e95761021a565b8063802aabe81461058557806380ae1c28146105b057806384db809f146105c75780638c0c2631146106045761021a565b80634603ae38116101a6578063541d554811610175578063541d55481461048e5780635c975abb146104cb5780635e1fab0f146104f6578063780cf0041461051f5780637febe63f146105485761021a565b80634603ae38146103bf5780634b0b919d146103e85780634e05600514610425578063505987191461044e5761021a565b8063248a9ca3116101ed578063248a9ca3146102ca5780632f2ff15d1461030757806336568abe146103305780633ee7094a146103595780634454b20d146103965761021a565b806301ffc9a71461021f57806305e2ca171461025c57806317f03ce5146102785780631ff013f1146102a1575b600080fd5b34801561022b57600080fd5b50610246600480360381019061024191906135db565b6108b8565b604051610253919061425a565b60405180910390f35b6102766004803603810190610271919061371d565b610932565b005b34801561028457600080fd5b5061029f600480360381019061029a9190613789565b610b95565b005b3480156102ad57600080fd5b506102c860048036038101906102c391906137d8565b610df6565b005b3480156102d657600080fd5b506102f160048036038101906102ec9190613576565b611844565b6040516102fe9190614275565b60405180910390f35b34801561031357600080fd5b5061032e6004803603810190610329919061359f565b611864565b005b34801561033c57600080fd5b506103576004803603810190610352919061359f565b611885565b005b34801561036557600080fd5b50610380600480360381019061037b919061362d565b611908565b60405161038d91906143b5565b60405180910390f35b3480156103a257600080fd5b506103bd60048036038101906103b8919061383b565b6119b5565b005b3480156103cb57600080fd5b506103e660048036038101906103e19190613501565b611d3f565b005b3480156103f457600080fd5b5061040f600480360381019061040a91906136f4565b611e90565b60405161041c91906146d6565b60405180910390f35b34801561043157600080fd5b5061044c60048036038101906104479190613604565b611eb7565b005b34801561045a57600080fd5b5061047560048036038101906104709190613669565b611ef6565b60405161048594939291906142e2565b60405180910390f35b34801561049a57600080fd5b506104b560048036038101906104b091906133c1565b611f40565b6040516104c2919061425a565b60405180910390f35b3480156104d757600080fd5b506104e0611f73565b6040516104ed919061425a565b60405180910390f35b34801561050257600080fd5b5061051d600480360381019061051891906133c1565b611f89565b005b34801561052b57600080fd5b506105466004803603810190610541919061344f565b611fae565b005b34801561055457600080fd5b5061056f600480360381019061056a91906136a5565b612031565b60405161057c919061425a565b60405180910390f35b34801561059157600080fd5b5061059a61206d565b6040516105a791906146bb565b60405180910390f35b3480156105bc57600080fd5b506105c5612073565b005b3480156105d357600080fd5b506105ee60048036038101906105e99190613576565b612085565b6040516105fb9190614208565b60405180910390f35b34801561061057600080fd5b5061062b60048036038101906106269190613413565b6120b8565b005b34801561063957600080fd5b50610654600480360381019061064f9190613604565b612135565b005b34801561066257600080fd5b5061067d6004803603810190610678919061359f565b61218c565b60405161068a919061425a565b60405180910390f35b34801561069f57600080fd5b506106a86121f7565b6040516106b59190614275565b60405180910390f35b3480156106ca57600080fd5b506106d361221b565b6040516106e091906146bb565b60405180910390f35b3480156106f557600080fd5b50610710600480360381019061070b91906133c1565b612221565b005b34801561071e57600080fd5b5061072761231a565b6040516107349190614275565b60405180910390f35b34801561074957600080fd5b50610764600480360381019061075f9190613789565b612321565b6040516107719190614699565b60405180910390f35b34801561078657600080fd5b5061078f61255c565b60405161079c91906146f1565b60405180910390f35b3480156107b157600080fd5b506107ba61256f565b6040516107c791906146bb565b60405180910390f35b3480156107dc57600080fd5b506107e5612575565b6040516107f291906146bb565b60405180910390f35b34801561080757600080fd5b50610822600480360381019061081d91906134b2565b61257b565b005b34801561083057600080fd5b5061084b600480360381019061084691906133c1565b61264d565b005b34801561085957600080fd5b50610874600480360381019061086f919061359f565b612747565b005b34801561088257600080fd5b5061088b612768565b60405161089891906146bb565b60405180910390f35b3480156108ad57600080fd5b506108b661276e565b005b60007f7965db0b000000000000000000000000000000000000000000000000000000007bffffffffffffffffffffffffffffffffffffffffffffffffffffffff1916827bffffffffffffffffffffffffffffffffffffffffffffffffffffffff1916148061092b575061092a82612a7a565b5b9050919050565b61093a612ae4565b600654341461097e576040517f08c379a0000000000000000000000000000000000000000000000000000000008152600401610975906144d9565b60405180910390fd5b60006009600085815260200190815260200160002060009054906101000a900473ffffffffffffffffffffffffffffffffffffffff169050600073ffffffffffffffffffffffffffffffffffffffff168173ffffffffffffffffffffffffffffffffffffffff161415610a26576040517f08c379a0000000000000000000000000000000000000000000000000000000008152600401610a1d90614539565b60405180910390fd5b6000600860008760ff1660ff168152602001908152602001600020600081819054906101000a900467ffffffffffffffff16610a6190614a49565b91906101000a81548167ffffffffffffffff021916908367ffffffffffffffff160217905590508383600a60008467ffffffffffffffff1667ffffffffffffffff16815260200190815260200160002060008960ff1660ff1681526020019081526020016000209190610ad592919061309a565b5060008290508073ffffffffffffffffffffffffffffffffffffffff166338995da9878985338a8a6040518763ffffffff1660e01b8152600401610b1e96959493929190614359565b600060405180830381600087803b158015610b3857600080fd5b505af1158015610b4c573d6000803e3d6000fd5b505050508167ffffffffffffffff16868860ff167fdbb69440df8433824a026ef190652f29929eb64b4d1d5d2a69be8afe3e6eaed860405160405180910390a450505050505050565b610b9d612b34565b60008360ff1660088467ffffffffffffffff1668ffffffffffffffffff16901b1790506000600b60008368ffffffffffffffffff1668ffffffffffffffffff16815260200190815260200160002060008481526020019081526020016000209050600480811115610c37577f4e487b7100000000000000000000000000000000000000000000000000000000600052602160045260246000fd5b8160040160009054906101000a900460ff166004811115610c81577f4e487b7100000000000000000000000000000000000000000000000000000000600052602160045260246000fd5b1415610cc2576040517f08c379a0000000000000000000000000000000000000000000000000000000008152600401610cb990614519565b60405180910390fd5b600754610cd3438360050154612bb3565b11610d13576040517f08c379a0000000000000000000000000000000000000000000000000000000008152600401610d0a90614559565b60405180910390fd5b60048160040160006101000a81548160ff02191690836004811115610d61577f4e487b7100000000000000000000000000000000000000000000000000000000600052602160045260246000fd5b0217905550600480811115610d9f577f4e487b7100000000000000000000000000000000000000000000000000000000600052602160045260246000fd5b8467ffffffffffffffff168660ff167f803c5a12f6bde629cea32e63d4b92d1b560816a6fb72e939d3c89e1cab65041784600001548560010154604051610de79291906142b9565b60405180910390a45050505050565b610dfe612bfd565b610e06612ae4565b60008460ff1660088567ffffffffffffffff1668ffffffffffffffffff16901b1790506000600b60008368ffffffffffffffffff1668ffffffffffffffffff16815260200190815260200160002060008481526020019081526020016000209050600073ffffffffffffffffffffffffffffffffffffffff166009600086815260200190815260200160002060009054906101000a900473ffffffffffffffffffffffffffffffffffffffff1673ffffffffffffffffffffffffffffffffffffffff161415610f0a576040517f08c379a0000000000000000000000000000000000000000000000000000000008152600401610f0190614659565b60405180910390fd5b60018160040160009054906101000a900460ff166004811115610f56577f4e487b7100000000000000000000000000000000000000000000000000000000600052602160045260246000fd5b1115610f97576040517f08c379a0000000000000000000000000000000000000000000000000000000008152600401610f8e906145b9565b60405180910390fd5b600c60008368ffffffffffffffffff1668ffffffffffffffffff168152602001908152602001600020600084815260200190815260200160002060003373ffffffffffffffffffffffffffffffffffffffff1673ffffffffffffffffffffffffffffffffffffffff16815260200190815260200160002060009054906101000a900460ff161561105c576040517f08c379a000000000000000000000000000000000000000000000000000000000815260040161105390614479565b60405180910390fd5b60008160040160009054906101000a900460ff1660048111156110a8577f4e487b7100000000000000000000000000000000000000000000000000000000600052602160045260246000fd5b1415611400576005600081546110bd90614a00565b919050819055506040518060c00160405280858152602001848152602001600167ffffffffffffffff81111561111c577f4e487b7100000000000000000000000000000000000000000000000000000000600052604160045260246000fd5b60405190808252806020026020018201604052801561114a5781602001602082028036833780820191505090505b508152602001600067ffffffffffffffff811115611191577f4e487b7100000000000000000000000000000000000000000000000000000000600052604160045260246000fd5b6040519080825280602002602001820160405280156111bf5781602001602082028036833780820191505090505b508152602001600160048111156111ff577f4e487b7100000000000000000000000000000000000000000000000000000000600052602160045260246000fd5b815260200143815250600b60008468ffffffffffffffffff1668ffffffffffffffffff168152602001908152602001600020600085815260200190815260200160002060008201518160000155602082015181600101556040820151816002019080519060200190611272929190613120565b50606082015181600301908051906020019061128f929190613120565b5060808201518160040160006101000a81548160ff021916908360048111156112e1577f4e487b7100000000000000000000000000000000000000000000000000000000600052602160045260246000fd5b021790555060a082015181600501559050503381600201600081548110611331577f4e487b7100000000000000000000000000000000000000000000000000000000600052603260045260246000fd5b9060005260206000200160006101000a81548173ffffffffffffffffffffffffffffffffffffffff021916908373ffffffffffffffffffffffffffffffffffffffff160217905550600160048111156113b3577f4e487b7100000000000000000000000000000000000000000000000000000000600052602160045260246000fd5b8567ffffffffffffffff168760ff167f803c5a12f6bde629cea32e63d4b92d1b560816a6fb72e939d3c89e1cab65041787876040516113f39291906142b9565b60405180910390a461159d565b600754611411438360050154612bb3565b11156114f05760048160040160006101000a81548160ff02191690836004811115611465577f4e487b7100000000000000000000000000000000000000000000000000000000600052602160045260246000fd5b02179055506004808111156114a3577f4e487b7100000000000000000000000000000000000000000000000000000000600052602160045260246000fd5b8567ffffffffffffffff168760ff167f803c5a12f6bde629cea32e63d4b92d1b560816a6fb72e939d3c89e1cab65041787876040516114e39291906142b9565b60405180910390a461159c565b80600101548314611536576040517f08c379a000000000000000000000000000000000000000000000000000000000815260040161152d90614639565b60405180910390fd5b80600201339080600181540180825580915050600190039060005260206000200160009091909190916101000a81548173ffffffffffffffffffffffffffffffffffffffff021916908373ffffffffffffffffffffffffffffffffffffffff1602179055505b5b6004808111156115d6577f4e487b7100000000000000000000000000000000000000000000000000000000600052602160045260246000fd5b8160040160009054906101000a900460ff166004811115611620577f4e487b7100000000000000000000000000000000000000000000000000000000600052602160045260246000fd5b1461183c576001600c60008468ffffffffffffffffff1668ffffffffffffffffff168152602001908152602001600020600085815260200190815260200160002060003373ffffffffffffffffffffffffffffffffffffffff1673ffffffffffffffffffffffffffffffffffffffff16815260200190815260200160002060006101000a81548160ff0219169083151502179055508060040160009054906101000a900460ff1660048111156116ff577f4e487b7100000000000000000000000000000000000000000000000000000000600052602160045260246000fd5b8567ffffffffffffffff168760ff167f25f8daaa4635a7729927ba3f5b3d59cc3320aca7c32c9db4e7ca7b95743436408760405161173d9190614275565b60405180910390a460016003541115806117605750600354816002018054905010155b1561183b5760028160040160006101000a81548160ff021916908360048111156117b3577f4e487b7100000000000000000000000000000000000000000000000000000000600052602160045260246000fd5b0217905550600260048111156117f2577f4e487b7100000000000000000000000000000000000000000000000000000000600052602160045260246000fd5b8567ffffffffffffffff168760ff167f803c5a12f6bde629cea32e63d4b92d1b560816a6fb72e939d3c89e1cab65041787876040516118329291906142b9565b60405180910390a45b5b505050505050565b600060016000838152602001908152602001600020600101549050919050565b61186d82611844565b61187681612c68565b6118808383612c7c565b505050565b61188d612d5c565b73ffffffffffffffffffffffffffffffffffffffff168173ffffffffffffffffffffffffffffffffffffffff16146118fa576040517f08c379a00000000000000000000000000000000000000000000000000000000081526004016118f190614679565b60405180910390fd5b6119048282612d64565b5050565b600a602052816000526040600020602052806000526040600020600091509150508054611934906149ce565b80601f0160208091040260200160405190810160405280929190818152602001828054611960906149ce565b80156119ad5780601f10611982576101008083540402835291602001916119ad565b820191906000526020600020905b81548152906001019060200180831161199057829003601f168201915b505050505081565b6119bd612bfd565b6119c5612ae4565b60006009600083815260200190815260200160002060009054906101000a900473ffffffffffffffffffffffffffffffffffffffff16905060008660ff1660088767ffffffffffffffff1668ffffffffffffffffff16901b1790506000828686604051602001611a37939291906141a4565b6040516020818303038152906040528051906020012090506000600b60008468ffffffffffffffffff1668ffffffffffffffffff1681526020019081526020016000206000838152602001908152602001600020905060026004811115611ac7577f4e487b7100000000000000000000000000000000000000000000000000000000600052602160045260246000fd5b8160040160009054906101000a900460ff166004811115611b11577f4e487b7100000000000000000000000000000000000000000000000000000000600052602160045260246000fd5b14611b51576040517f08c379a0000000000000000000000000000000000000000000000000000000008152600401611b48906143f9565b60405180910390fd5b80600101548214611b97576040517f08c379a0000000000000000000000000000000000000000000000000000000008152600401611b8e906144f9565b60405180910390fd5b60038160040160006101000a81548160ff02191690836004811115611be5577f4e487b7100000000000000000000000000000000000000000000000000000000600052602160045260246000fd5b02179055506000600960008360000154815260200190815260200160002060009054906101000a900473ffffffffffffffffffffffffffffffffffffffff1690508073ffffffffffffffffffffffffffffffffffffffff1663e248cff283600001548a8a6040518463ffffffff1660e01b8152600401611c6793929190614327565b600060405180830381600087803b158015611c8157600080fd5b505af1158015611c95573d6000803e3d6000fd5b505050508160040160009054906101000a900460ff166004811115611ce3577f4e487b7100000000000000000000000000000000000000000000000000000000600052602160045260246000fd5b8967ffffffffffffffff168b60ff167f803c5a12f6bde629cea32e63d4b92d1b560816a6fb72e939d3c89e1cab65041785600001548660010154604051611d2b9291906142b9565b60405180910390a450505050505050505050565b611d47612e46565b818190508484905014611d8f576040517f08c379a0000000000000000000000000000000000000000000000000000000008152600401611d8690614459565b60405180910390fd5b600084849050905060005b81811015611e8857858582818110611ddb577f4e487b7100000000000000000000000000000000000000000000000000000000600052603260045260246000fd5b9050602002016020810190611df091906133ea565b73ffffffffffffffffffffffffffffffffffffffff166108fc858584818110611e42577f4e487b7100000000000000000000000000000000000000000000000000000000600052603260045260246000fd5b905060200201359081150290604051600060405180830381858888f19350505050158015611e74573d6000803e3d6000fd5b508080611e8090614a00565b915050611d9a565b505050505050565b60086020528060005260406000206000915054906101000a900467ffffffffffffffff1681565b611ebf612e46565b80600381905550807fa20d6b84cd798a24038be305eff8a45ca82ef54a2aa2082005d8e14c0a4746c860405160405180910390a250565b600b602052816000526040600020602052806000526040600020600091509150508060000154908060010154908060040160009054906101000a900460ff16908060050154905084565b6000611f6c7fe2b7fb3b832174769106daebcfd6d1970523240dda11281102db9363b83b0dc48361218c565b9050919050565b60008060009054906101000a900460ff16905090565b611f91612e46565b611f9e6000801b82611864565b611fab6000801b33611885565b50565b611fb6612e46565b60008490508073ffffffffffffffffffffffffffffffffffffffff1663d9caed128585856040518463ffffffff1660e01b8152600401611ff893929190614223565b600060405180830381600087803b15801561201257600080fd5b505af1158015612026573d6000803e3d6000fd5b505050505050505050565b600c602052826000526040600020602052816000526040600020602052806000526040600020600092509250509054906101000a900460ff1681565b60045481565b61207b612e46565b612083612e94565b565b60096020528060005260406000206000915054906101000a900473ffffffffffffffffffffffffffffffffffffffff1681565b6120c0612e46565b60008290508073ffffffffffffffffffffffffffffffffffffffff166307b7ed99836040518263ffffffff1660e01b81526004016120fe9190614208565b600060405180830381600087803b15801561211857600080fd5b505af115801561212c573d6000803e3d6000fd5b50505050505050565b61213d612e46565b806006541415612182576040517f08c379a000000000000000000000000000000000000000000000000000000000815260040161217990614619565b60405180910390fd5b8060068190555050565b60006001600084815260200190815260200160002060000160008373ffffffffffffffffffffffffffffffffffffffff1673ffffffffffffffffffffffffffffffffffffffff16815260200190815260200160002060009054906101000a900460ff16905092915050565b7fe2b7fb3b832174769106daebcfd6d1970523240dda11281102db9363b83b0dc481565b60055481565b612229612e46565b6122537fe2b7fb3b832174769106daebcfd6d1970523240dda11281102db9363b83b0dc48261218c565b612292576040517f08c379a0000000000000000000000000000000000000000000000000000000008152600401612289906144b9565b60405180910390fd5b6122bc7fe2b7fb3b832174769106daebcfd6d1970523240dda11281102db9363b83b0dc482612747565b8073ffffffffffffffffffffffffffffffffffffffff167f10e1f7ce9fd7d1b90a66d13a2ab3cb8dd7f29f3f8d520b143b063ccfbab6906b60405160405180910390a260046000815480929190612312906149a4565b919050555050565b6000801b81565b6123296131aa565b60008460ff1660088567ffffffffffffffff1668ffffffffffffffffff16901b179050600b60008268ffffffffffffffffff1668ffffffffffffffffff16815260200190815260200160002060008481526020019081526020016000206040518060c001604052908160008201548152602001600182015481526020016002820180548060200260200160405190810160405280929190818152602001828054801561242a57602002820191906000526020600020905b8160009054906101000a900473ffffffffffffffffffffffffffffffffffffffff1673ffffffffffffffffffffffffffffffffffffffff16815260200190600101908083116123e0575b50505050508152602001600382018054806020026020016040519081016040528092919081815260200182805480156124b857602002820191906000526020600020905b8160009054906101000a900473ffffffffffffffffffffffffffffffffffffffff1673ffffffffffffffffffffffffffffffffffffffff168152602001906001019080831161246e575b505050505081526020016004820160009054906101000a900460ff16600481111561250c577f4e487b7100000000000000000000000000000000000000000000000000000000600052602160045260246000fd5b6004811115612544577f4e487b7100000000000000000000000000000000000000000000000000000000600052602160045260246000fd5b81526020016005820154815250509150509392505050565b600260009054906101000a900460ff1681565b60065481565b60075481565b612583612e46565b826009600084815260200190815260200160002060006101000a81548173ffffffffffffffffffffffffffffffffffffffff021916908373ffffffffffffffffffffffffffffffffffffffff16021790555060008390508073ffffffffffffffffffffffffffffffffffffffff1663b8fa373684846040518363ffffffff1660e01b8152600401612615929190614290565b600060405180830381600087803b15801561262f57600080fd5b505af1158015612643573d6000803e3d6000fd5b5050505050505050565b612655612e46565b61267f7fe2b7fb3b832174769106daebcfd6d1970523240dda11281102db9363b83b0dc48261218c565b156126bf576040517f08c379a00000000000000000000000000000000000000000000000000000000081526004016126b690614599565b60405180910390fd5b6126e97fe2b7fb3b832174769106daebcfd6d1970523240dda11281102db9363b83b0dc482611864565b8073ffffffffffffffffffffffffffffffffffffffff167f03580ee9f53a62b7cb409a2cb56f9be87747dd15017afc5cef6eef321e4fb2c560405160405180910390a26004600081548092919061273f90614a00565b919050555050565b61275082611844565b61275981612c68565b6127638383612d64565b505050565b60035481565b612776612e46565b61277e612eef565b565b60606000600283600261279391906147e9565b61279d9190614793565b67ffffffffffffffff8111156127dc577f4e487b7100000000000000000000000000000000000000000000000000000000600052604160045260246000fd5b6040519080825280601f01601f19166020018201604052801561280e5781602001600182028036833780820191505090505b5090507f30000000000000000000000000000000000000000000000000000000000000008160008151811061286c577f4e487b7100000000000000000000000000000000000000000000000000000000600052603260045260246000fd5b60200101907effffffffffffffffffffffffffffffffffffffffffffffffffffffffffffff1916908160001a9053507f7800000000000000000000000000000000000000000000000000000000000000816001815181106128f6577f4e487b7100000000000000000000000000000000000000000000000000000000600052603260045260246000fd5b60200101907effffffffffffffffffffffffffffffffffffffffffffffffffffffffffffff1916908160001a9053506000600184600261293691906147e9565b6129409190614793565b90505b6001811115612a2c577f3031323334353637383961626364656600000000000000000000000000000000600f8616601081106129a8577f4e487b7100000000000000000000000000000000000000000000000000000000600052603260045260246000fd5b1a60f81b8282815181106129e5577f4e487b7100000000000000000000000000000000000000000000000000000000600052603260045260246000fd5b60200101907effffffffffffffffffffffffffffffffffffffffffffffffffffffffffffff1916908160001a905350600485901c945080612a25906149a4565b9050612943565b5060008414612a70576040517f08c379a0000000000000000000000000000000000000000000000000000000008152600401612a6790614419565b60405180910390fd5b8091505092915050565b60007f01ffc9a7000000000000000000000000000000000000000000000000000000007bffffffffffffffffffffffffffffffffffffffffffffffffffffffff1916827bffffffffffffffffffffffffffffffffffffffffffffffffffffffff1916149050919050565b60008054906101000a900460ff1615612b32576040517f08c379a0000000000000000000000000000000000000000000000000000000008152600401612b2990614579565b60405180910390fd5b565b612b416000801b3361218c565b80612b725750612b717fe2b7fb3b832174769106daebcfd6d1970523240dda11281102db9363b83b0dc43361218c565b5b612bb1576040517f08c379a0000000000000000000000000000000000000000000000000000000008152600401612ba890614439565b60405180910390fd5b565b6000612bf583836040518060400160405280601e81526020017f536166654d6174683a207375627472616374696f6e206f766572666c6f770000815250612f4a565b905092915050565b612c277fe2b7fb3b832174769106daebcfd6d1970523240dda11281102db9363b83b0dc43361218c565b612c66576040517f08c379a0000000000000000000000000000000000000000000000000000000008152600401612c5d906145d9565b60405180910390fd5b565b612c7981612c74612d5c565b612fae565b50565b612c86828261218c565b612d5857600180600084815260200190815260200160002060000160008373ffffffffffffffffffffffffffffffffffffffff1673ffffffffffffffffffffffffffffffffffffffff16815260200190815260200160002060006101000a81548160ff021916908315150217905550612cfd612d5c565b73ffffffffffffffffffffffffffffffffffffffff168173ffffffffffffffffffffffffffffffffffffffff16837f2f8788117e7eff1d82e926ec794901d17c78024a50270940304540a733656f0d60405160405180910390a45b5050565b600033905090565b612d6e828261218c565b15612e425760006001600084815260200190815260200160002060000160008373ffffffffffffffffffffffffffffffffffffffff1673ffffffffffffffffffffffffffffffffffffffff16815260200190815260200160002060006101000a81548160ff021916908315150217905550612de7612d5c565b73ffffffffffffffffffffffffffffffffffffffff168173ffffffffffffffffffffffffffffffffffffffff16837ff6391f5c32d9c69d2a47ea670b442974b53935d1edc7fd64eb21e047a839171b60405160405180910390a45b5050565b612e536000801b3361218c565b612e92576040517f08c379a0000000000000000000000000000000000000000000000000000000008152600401612e89906145f9565b60405180910390fd5b565b612e9c612ae4565b60016000806101000a81548160ff0219169083151502179055507f62e78cea01bee320cd4e420270b5ea74000d11b0c9f74754ebdbfc544b05a25833604051612ee59190614208565b60405180910390a1565b612ef761304b565b60008060006101000a81548160ff0219169083151502179055507f5db9ee0a495bf2e6ff9c91a7834c1ba4fdd244a5e8aa4e537bd38aeae4b073aa33604051612f409190614208565b60405180910390a1565b6000838311158290612f92576040517f08c379a0000000000000000000000000000000000000000000000000000000008152600401612f8991906143d7565b60405180910390fd5b5060008385612fa19190614843565b9050809150509392505050565b612fb8828261218c565b61304757612fdd8173ffffffffffffffffffffffffffffffffffffffff166014612780565b612feb8360001c6020612780565b604051602001612ffc9291906141ce565b6040516020818303038152906040526040517f08c379a000000000000000000000000000000000000000000000000000000000815260040161303e91906143d7565b60405180910390fd5b5050565b60008054906101000a900460ff16613098576040517f08c379a000000000000000000000000000000000000000000000000000000000815260040161308f90614499565b60405180910390fd5b565b8280546130a6906149ce565b90600052602060002090601f0160209004810192826130c8576000855561310f565b82601f106130e157803560ff191683800117855561310f565b8280016001018555821561310f579182015b8281111561310e5782358255916020019190600101906130f3565b5b50905061311c919061321e565b5090565b828054828255906000526020600020908101928215613199579160200282015b828111156131985782518260006101000a81548173ffffffffffffffffffffffffffffffffffffffff021916908373ffffffffffffffffffffffffffffffffffffffff16021790555091602001919060010190613140565b5b5090506131a6919061321e565b5090565b6040518060c001604052806000801916815260200160008019168152602001606081526020016060815260200160006004811115613211577f4e487b7100000000000000000000000000000000000000000000000000000000600052602160045260246000fd5b8152602001600081525090565b5b8082111561323757600081600090555060010161321f565b5090565b60008135905061324a81614b5d565b92915050565b60008135905061325f81614b74565b92915050565b60008083601f84011261327757600080fd5b8235905067ffffffffffffffff81111561329057600080fd5b6020830191508360208202830111156132a857600080fd5b9250929050565b60008083601f8401126132c157600080fd5b8235905067ffffffffffffffff8111156132da57600080fd5b6020830191508360208202830111156132f257600080fd5b9250929050565b60008135905061330881614b8b565b92915050565b60008135905061331d81614ba2565b92915050565b60008083601f84011261333557600080fd5b8235905067ffffffffffffffff81111561334e57600080fd5b60208301915083600182028301111561336657600080fd5b9250929050565b60008135905061337c81614bb9565b92915050565b60008135905061339181614bd0565b92915050565b6000813590506133a681614be7565b92915050565b6000813590506133bb81614bfe565b92915050565b6000602082840312156133d357600080fd5b60006133e18482850161323b565b91505092915050565b6000602082840312156133fc57600080fd5b600061340a84828501613250565b91505092915050565b6000806040838503121561342657600080fd5b60006134348582860161323b565b92505060206134458582860161323b565b9150509250929050565b6000806000806080858703121561346557600080fd5b60006134738782880161323b565b94505060206134848782880161323b565b93505060406134958782880161323b565b92505060606134a68782880161336d565b91505092959194509250565b6000806000606084860312156134c757600080fd5b60006134d58682870161323b565b93505060206134e6868287016132f9565b92505060406134f78682870161323b565b9150509250925092565b6000806000806040858703121561351757600080fd5b600085013567ffffffffffffffff81111561353157600080fd5b61353d87828801613265565b9450945050602085013567ffffffffffffffff81111561355c57600080fd5b613568878288016132af565b925092505092959194509250565b60006020828403121561358857600080fd5b6000613596848285016132f9565b91505092915050565b600080604083850312156135b257600080fd5b60006135c0858286016132f9565b92505060206135d18582860161323b565b9150509250929050565b6000602082840312156135ed57600080fd5b60006135fb8482850161330e565b91505092915050565b60006020828403121561361657600080fd5b60006136248482850161336d565b91505092915050565b6000806040838503121561364057600080fd5b600061364e85828601613382565b925050602061365f858286016133ac565b9150509250929050565b6000806040838503121561367c57600080fd5b600061368a85828601613397565b925050602061369b858286016132f9565b9150509250929050565b6000806000606084860312156136ba57600080fd5b60006136c886828701613397565b93505060206136d9868287016132f9565b92505060406136ea8682870161323b565b9150509250925092565b60006020828403121561370657600080fd5b6000613714848285016133ac565b91505092915050565b6000806000806060858703121561373357600080fd5b6000613741878288016133ac565b9450506020613752878288016132f9565b935050604085013567ffffffffffffffff81111561376f57600080fd5b61377b87828801613323565b925092505092959194509250565b60008060006060848603121561379e57600080fd5b60006137ac868287016133ac565b93505060206137bd86828701613382565b92505060406137ce868287016132f9565b9150509250925092565b600080600080608085870312156137ee57600080fd5b60006137fc878288016133ac565b945050602061380d87828801613382565b935050604061381e878288016132f9565b925050606061382f878288016132f9565b91505092959194509250565b60008060008060006080868803121561385357600080fd5b6000613861888289016133ac565b955050602061387288828901613382565b945050604086013567ffffffffffffffff81111561388f57600080fd5b61389b88828901613323565b935093505060606138ae888289016132f9565b9150509295509295909350565b60006138c783836138d3565b60208301905092915050565b6138dc81614877565b82525050565b6138eb81614877565b82525050565b6139026138fd82614877565b614a7a565b82525050565b60006139138261471c565b61391d818561474a565b93506139288361470c565b8060005b8381101561395957815161394088826138bb565b975061394b8361473d565b92505060018101905061392c565b5085935050505092915050565b61396f8161489b565b82525050565b61397e816148a7565b82525050565b61398d816148a7565b82525050565b600061399f838561475b565b93506139ac838584614962565b6139b583614b2b565b840190509392505050565b60006139cc838561476c565b93506139d9838584614962565b82840190509392505050565b60006139f082614727565b6139fa818561475b565b9350613a0a818560208601614971565b613a1381614b2b565b840191505092915050565b613a2781614950565b82525050565b613a3681614950565b82525050565b6000613a4782614732565b613a518185614777565b9350613a61818560208601614971565b613a6a81614b2b565b840191505092915050565b6000613a8082614732565b613a8a8185614788565b9350613a9a818560208601614971565b80840191505092915050565b6000613ab3601c83614777565b91507f70726f706f73616c20616c7265616479207472616e73666572726564000000006000830152602082019050919050565b6000613af3602083614777565b91507f537472696e67733a20686578206c656e67746820696e73756666696369656e746000830152602082019050919050565b6000613b33601e83614777565b91507f73656e646572206973206e6f742072656c61796572206f722061646d696e00006000830152602082019050919050565b6000613b73602683614777565b91507f6c656e677468206f66206164647265737320616e6420616d6f756e747320646960008301527f736d6174636800000000000000000000000000000000000000000000000000006020830152604082019050919050565b6000613bd9601583614777565b91507f72656c6179657220616c726561647920766f74656400000000000000000000006000830152602082019050919050565b6000613c19601483614777565b91507f5061757361626c653a206e6f74207061757365640000000000000000000000006000830152602082019050919050565b6000613c59601f83614777565b91507f6164647220646f65736e277420686176652072656c6179657220726f6c6521006000830152602082019050919050565b6000613c99601683614777565b91507f496e636f72726563742066656520737570706c696564000000000000000000006000830152602082019050919050565b6000613cd9601b83614777565b91507f6461746120646f65736e2774206d6174636820646174616861736800000000006000830152602082019050919050565b6000613d19601a83614777565b91507f50726f706f73616c20616c72656164792063616e63656c6c65640000000000006000830152602082019050919050565b6000613d59602083614777565b91507f7265736f757263654944206e6f74206d617070656420746f2068616e646c65726000830152602082019050919050565b6000613d99602083614777565b91507f50726f706f73616c206e6f7420617420657870697279207468726573686f6c646000830152602082019050919050565b6000613dd9601083614777565b91507f5061757361626c653a20706175736564000000000000000000000000000000006000830152602082019050919050565b6000613e19601e83614777565b91507f6164647220616c7265616479206861732072656c6179657220726f6c652100006000830152602082019050919050565b6000613e59602a83614777565b91507f70726f706f73616c20616c7265616479207061737365642f657865637574656460008301527f2f63616e63656c6c6564000000000000000000000000000000000000000000006020830152604082019050919050565b6000613ebf602083614777565b91507f73656e64657220646f65736e277420686176652072656c6179657220726f6c656000830152602082019050919050565b6000613eff601e83614777565b91507f73656e64657220646f65736e277420686176652061646d696e20726f6c6500006000830152602082019050919050565b6000613f3f601783614788565b91507f416363657373436f6e74726f6c3a206163636f756e74200000000000000000006000830152601782019050919050565b6000613f7f601f83614777565b91507f43757272656e742066656520697320657175616c20746f206e657720666565006000830152602082019050919050565b6000613fbf601183614777565b91507f6461746168617368206d69736d617463680000000000000000000000000000006000830152602082019050919050565b6000613fff601983614777565b91507f6e6f2068616e646c657220666f72207265736f757263654944000000000000006000830152602082019050919050565b600061403f601183614788565b91507f206973206d697373696e6720726f6c65200000000000000000000000000000006000830152601182019050919050565b600061407f602f83614777565b91507f416363657373436f6e74726f6c3a2063616e206f6e6c792072656e6f756e636560008301527f20726f6c657320666f722073656c6600000000000000000000000000000000006020830152604082019050919050565b600060c0830160008301516140f06000860182613975565b5060208301516141036020860182613975565b506040830151848203604086015261411b8282613908565b915050606083015184820360608601526141358282613908565b915050608083015161414a6080860182613a1e565b5060a083015161415d60a0860182614168565b508091505092915050565b61417181614910565b82525050565b61418081614910565b82525050565b61418f8161491a565b82525050565b61419e81614943565b82525050565b60006141b082866138f1565b6014820191506141c18284866139c0565b9150819050949350505050565b60006141d982613f32565b91506141e58285613a75565b91506141f082614032565b91506141fc8284613a75565b91508190509392505050565b600060208201905061421d60008301846138e2565b92915050565b600060608201905061423860008301866138e2565b61424560208301856138e2565b6142526040830184614177565b949350505050565b600060208201905061426f6000830184613966565b92915050565b600060208201905061428a6000830184613984565b92915050565b60006040820190506142a56000830185613984565b6142b260208301846138e2565b9392505050565b60006040820190506142ce6000830185613984565b6142db6020830184613984565b9392505050565b60006080820190506142f76000830187613984565b6143046020830186613984565b6143116040830185613a2d565b61431e6060830184614177565b95945050505050565b600060408201905061433c6000830186613984565b818103602083015261434f818486613993565b9050949350505050565b600060a08201905061436e6000830189613984565b61437b6020830188614195565b6143886040830187614186565b61439560608301866138e2565b81810360808301526143a8818486613993565b9050979650505050505050565b600060208201905081810360008301526143cf81846139e5565b905092915050565b600060208201905081810360008301526143f18184613a3c565b905092915050565b6000602082019050818103600083015261441281613aa6565b9050919050565b6000602082019050818103600083015261443281613ae6565b9050919050565b6000602082019050818103600083015261445281613b26565b9050919050565b6000602082019050818103600083015261447281613b66565b9050919050565b6000602082019050818103600083015261449281613bcc565b9050919050565b600060208201905081810360008301526144b281613c0c565b9050919050565b600060208201905081810360008301526144d281613c4c565b9050919050565b600060208201905081810360008301526144f281613c8c565b9050919050565b6000602082019050818103600083015261451281613ccc565b9050919050565b6000602082019050818103600083015261453281613d0c565b9050919050565b6000602082019050818103600083015261455281613d4c565b9050919050565b6000602082019050818103600083015261457281613d8c565b9050919050565b6000602082019050818103600083015261459281613dcc565b9050919050565b600060208201905081810360008301526145b281613e0c565b9050919050565b600060208201905081810360008301526145d281613e4c565b9050919050565b600060208201905081810360008301526145f281613eb2565b9050919050565b6000602082019050818103600083015261461281613ef2565b9050919050565b6000602082019050818103600083015261463281613f72565b9050919050565b6000602082019050818103600083015261465281613fb2565b9050919050565b6000602082019050818103600083015261467281613ff2565b9050919050565b6000602082019050818103600083015261469281614072565b9050919050565b600060208201905081810360008301526146b381846140d8565b905092915050565b60006020820190506146d06000830184614177565b92915050565b60006020820190506146eb6000830184614186565b92915050565b60006020820190506147066000830184614195565b92915050565b6000819050602082019050919050565b600081519050919050565b600081519050919050565b600081519050919050565b6000602082019050919050565b600082825260208201905092915050565b600082825260208201905092915050565b600081905092915050565b600082825260208201905092915050565b600081905092915050565b600061479e82614910565b91506147a983614910565b9250827fffffffffffffffffffffffffffffffffffffffffffffffffffffffffffffffff038211156147de576147dd614a9e565b5b828201905092915050565b60006147f482614910565b91506147ff83614910565b9250817fffffffffffffffffffffffffffffffffffffffffffffffffffffffffffffffff048311821515161561483857614837614a9e565b5b828202905092915050565b600061484e82614910565b915061485983614910565b92508282101561486c5761486b614a9e565b5b828203905092915050565b6000614882826148f0565b9050919050565b6000614894826148f0565b9050919050565b60008115159050919050565b6000819050919050565b60007fffffffff0000000000000000000000000000000000000000000000000000000082169050919050565b60008190506148eb82614b49565b919050565b600073ffffffffffffffffffffffffffffffffffffffff82169050919050565b6000819050919050565b600067ffffffffffffffff82169050919050565b600068ffffffffffffffffff82169050919050565b600060ff82169050919050565b600061495b826148dd565b9050919050565b82818337600083830152505050565b60005b8381101561498f578082015181840152602081019050614974565b8381111561499e576000848401525b50505050565b60006149af82614910565b915060008214156149c3576149c2614a9e565b5b600182039050919050565b600060028204905060018216806149e657607f821691505b602082108114156149fa576149f9614afc565b5b50919050565b6000614a0b82614910565b91507fffffffffffffffffffffffffffffffffffffffffffffffffffffffffffffffff821415614a3e57614a3d614a9e565b5b600182019050919050565b6000614a548261491a565b915067ffffffffffffffff821415614a6f57614a6e614a9e565b5b600182019050919050565b6000614a8582614a8c565b9050919050565b6000614a9782614b3c565b9050919050565b7f4e487b7100000000000000000000000000000000000000000000000000000000600052601160045260246000fd5b7f4e487b7100000000000000000000000000000000000000000000000000000000600052602160045260246000fd5b7f4e487b7100000000000000000000000000000000000000000000000000000000600052602260045260246000fd5b6000601f19601f8301169050919050565b60008160601b9050919050565b60058110614b5a57614b59614acd565b5b50565b614b6681614877565b8114614b7157600080fd5b50565b614b7d81614889565b8114614b8857600080fd5b50565b614b94816148a7565b8114614b9f57600080fd5b50565b614bab816148b1565b8114614bb657600080fd5b50565b614bc281614910565b8114614bcd57600080fd5b50565b614bd98161491a565b8114614be457600080fd5b50565b614bf08161492e565b8114614bfb57600080fd5b50565b614c0781614943565b8114614c1257600080fd5b5056fea2646970667358221220856fe7a86a28b4c498107f6dc53ee5b2e3b3bcf84218acd0f7d062c005b37fbb64736f6c63430008000033",
  "immutableReferences": {},
  "source": "// SPDX-License-Identifier: MIT\n\npragma solidity ^0.8.0;\npragma experimental ABIEncoderV2;\n\nimport \"@openzeppelin/contracts/access/AccessControl.sol\";\nimport \"./utils/Pausable.sol\";\nimport \"./utils/SafeMath.sol\";\nimport \"./interfaces/IDepositExecute.sol\";\nimport \"./interfaces/IBridge.sol\";\nimport \"./interfaces/IERCHandler.sol\";\n\n/**\n    @title Facilitates deposits, creation and votiing of deposit proposals, and deposit executions.\n    @author ChainSafe Systems.\n */\ncontract Bridge is CustomPausable, AccessControl, CustomSafeMath {\n\n    uint8   public _chainID;\n    uint256 public _relayerThreshold;\n    uint256 public _totalRelayers;\n    uint256 public _totalProposals;\n    uint256 public _fee;\n    uint256 public _expiry;\n\n    enum Vote {No, Yes}\n\n    enum ProposalStatus {Inactive, Active, Passed, Executed, Cancelled}\n\n    struct Proposal {\n        bytes32 _resourceID;\n        bytes32 _dataHash;\n        address[] _yesVotes;\n        address[] _noVotes;\n        ProposalStatus _status;\n        uint256 _proposedBlock;\n    }\n\n    // destinationChainID => number of deposits\n    mapping(uint8 => uint64) public _depositCounts;\n    // resourceID => handler address\n    mapping(bytes32 => address) public _resourceIDToHandlerAddress;\n    // depositNonce => destinationChainID => bytes\n    mapping(uint64 => mapping(uint8 => bytes)) public _depositRecords;\n    // destinationChainID + depositNonce => dataHash => Proposal\n    mapping(uint72 => mapping(bytes32 => Proposal)) public _proposals;\n    // destinationChainID + depositNonce => dataHash => relayerAddress => bool\n    mapping(uint72 => mapping(bytes32 => mapping(address => bool))) public _hasVotedOnProposal;\n\n    event RelayerThresholdChanged(uint indexed newThreshold);\n    event RelayerAdded(address indexed relayer);\n    event RelayerRemoved(address indexed relayer);\n    event Deposit(\n        uint8   indexed destinationChainID,\n        bytes32 indexed resourceID,\n        uint64  indexed depositNonce\n    );\n    event ProposalEvent(\n        uint8           indexed originChainID,\n        uint64          indexed depositNonce,\n        ProposalStatus  indexed status,\n        bytes32 resourceID,\n        bytes32 dataHash\n    );\n\n    event ProposalVote(\n        uint8   indexed originChainID,\n        uint64  indexed depositNonce,\n        ProposalStatus indexed status,\n        bytes32 resourceID\n    );\n\n    bytes32 public constant RELAYER_ROLE = keccak256(\"RELAYER_ROLE\");\n\n    modifier onlyAdmin() {\n        _onlyAdmin();\n        _;\n    }\n\n    modifier onlyAdminOrRelayer() {\n        _onlyAdminOrRelayer();\n        _;\n    }\n\n    modifier onlyRelayers() {\n        _onlyRelayers();\n        _;\n    }\n\n    function _onlyAdminOrRelayer() private {\n        require(hasRole(DEFAULT_ADMIN_ROLE, msg.sender) || hasRole(RELAYER_ROLE, msg.sender),\n            \"sender is not relayer or admin\");\n    }\n\n    function _onlyAdmin() private {\n        require(hasRole(DEFAULT_ADMIN_ROLE, msg.sender), \"sender doesn't have admin role\");\n    }\n\n    function _onlyRelayers() private {\n        require(hasRole(RELAYER_ROLE, msg.sender), \"sender doesn't have relayer role\");\n    }\n\n    /**\n        @notice Initializes Bridge, creates and grants {msg.sender} the admin role,\n        creates and grants {initialRelayers} the relayer role.\n        @param chainID ID of chain the Bridge contract exists on.\n        @param initialRelayers Addresses that should be initially granted the relayer role.\n        @param initialRelayerThreshold Number of votes needed for a deposit proposal to be considered passed.\n     */\n    constructor (uint8 chainID, address[] memory initialRelayers, uint initialRelayerThreshold, uint256 fee, uint256 expiry) public {\n        _chainID = chainID;\n        _relayerThreshold = initialRelayerThreshold;\n        _fee = fee;\n        _expiry = expiry;\n\n        _setupRole(DEFAULT_ADMIN_ROLE, msg.sender);\n        _setRoleAdmin(RELAYER_ROLE, DEFAULT_ADMIN_ROLE);\n\n        uint initialRelayerCount = initialRelayers.length;\n        for (uint i; i < initialRelayerCount; i++) {\n            grantRole(RELAYER_ROLE, initialRelayers[i]);\n            _totalRelayers++;\n        }\n\n    }\n\n    /**\n        @notice Returns true if {relayer} has the relayer role.\n        @param relayer Address to check.\n     */\n    function isRelayer(address relayer) external view returns (bool) {\n        return hasRole(RELAYER_ROLE, relayer);\n    }\n\n    /**\n        @notice Removes admin role from {msg.sender} and grants it to {newAdmin}.\n        @notice Only callable by an address that currently has the admin role.\n        @param newAdmin Address that admin role will be granted to.\n     */\n    function renounceAdmin(address newAdmin) external onlyAdmin {\n        grantRole(DEFAULT_ADMIN_ROLE, newAdmin);\n        renounceRole(DEFAULT_ADMIN_ROLE, msg.sender);\n    }\n\n    /**\n        @notice Pauses deposits, proposal creation and voting, and deposit executions.\n        @notice Only callable by an address that currently has the admin role.\n     */\n    function adminPauseTransfers() external onlyAdmin {\n        _pause();\n    }\n\n    /**\n        @notice Unpauses deposits, proposal creation and voting, and deposit executions.\n        @notice Only callable by an address that currently has the admin role.\n     */\n    function adminUnpauseTransfers() external onlyAdmin {\n        _unpause();\n    }\n\n    /**\n        @notice Modifies the number of votes required for a proposal to be considered passed.\n        @notice Only callable by an address that currently has the admin role.\n        @param newThreshold Value {_relayerThreshold} will be changed to.\n        @notice Emits {RelayerThresholdChanged} event.\n     */\n    function adminChangeRelayerThreshold(uint newThreshold) external onlyAdmin {\n        _relayerThreshold = newThreshold;\n        emit RelayerThresholdChanged(newThreshold);\n    }\n\n    /**\n        @notice Grants {relayerAddress} the relayer role and increases {_totalRelayer} count.\n        @notice Only callable by an address that currently has the admin role.\n        @param relayerAddress Address of relayer to be added.\n        @notice Emits {RelayerAdded} event.\n     */\n    function adminAddRelayer(address relayerAddress) external onlyAdmin {\n        require(!hasRole(RELAYER_ROLE, relayerAddress), \"addr already has relayer role!\");\n        grantRole(RELAYER_ROLE, relayerAddress);\n        emit RelayerAdded(relayerAddress);\n        _totalRelayers++;\n    }\n\n    /**\n        @notice Removes relayer role for {relayerAddress} and decreases {_totalRelayer} count.\n        @notice Only callable by an address that currently has the admin role.\n        @param relayerAddress Address of relayer to be removed.\n        @notice Emits {RelayerRemoved} event.\n     */\n    function adminRemoveRelayer(address relayerAddress) external onlyAdmin {\n        require(hasRole(RELAYER_ROLE, relayerAddress), \"addr doesn't have relayer role!\");\n        revokeRole(RELAYER_ROLE, relayerAddress);\n        emit RelayerRemoved(relayerAddress);\n        _totalRelayers--;\n    }\n\n    /**\n        @notice Sets a new resource for handler contracts that use the IERCHandler interface,\n        and maps the {handlerAddress} to {resourceID} in {_resourceIDToHandlerAddress}.\n        @notice Only callable by an address that currently has the admin role.\n        @param handlerAddress Address of handler resource will be set for.\n        @param resourceID ResourceID to be used when making deposits.\n        @param tokenAddress Address of contract to be called when a deposit is made and a deposited is executed.\n     */\n    function adminSetResource(address handlerAddress, bytes32 resourceID, address tokenAddress) external onlyAdmin {\n        _resourceIDToHandlerAddress[resourceID] = handlerAddress;\n        IERCHandler handler = IERCHandler(handlerAddress);\n        handler.setResource(resourceID, tokenAddress);\n    }\n\n    /**\n        @notice Sets a resource as burnable for handler contracts that use the IERCHandler interface.\n        @notice Only callable by an address that currently has the admin role.\n        @param handlerAddress Address of handler resource will be set for.\n        @param tokenAddress Address of contract to be called when a deposit is made and a deposited is executed.\n     */\n    function adminSetBurnable(address handlerAddress, address tokenAddress) external onlyAdmin {\n        IERCHandler handler = IERCHandler(handlerAddress);\n        handler.setBurnable(tokenAddress);\n    }\n\n    /**\n        @notice Returns a proposal.\n        @param originChainID Chain ID deposit originated from.\n        @param depositNonce ID of proposal generated by proposal's origin Bridge contract.\n        @param dataHash Hash of data to be provided when deposit proposal is executed.\n        @return Proposal which consists of:\n        - _dataHash Hash of data to be provided when deposit proposal is executed.\n        - _yesVotes Number of votes in favor of proposal.\n        - _noVotes Number of votes against proposal.\n        - _status Current status of proposal.\n     */\n    function getProposal(uint8 originChainID, uint64 depositNonce, bytes32 dataHash) external view returns (Proposal memory) {\n        uint72 nonceAndID = (uint72(depositNonce) << 8) | uint72(originChainID);\n        return _proposals[nonceAndID][dataHash];\n    }\n\n    /**\n        @notice Changes deposit fee.\n        @notice Only callable by admin.\n        @param newFee Value {_fee} will be updated to.\n     */\n    function adminChangeFee(uint newFee) external onlyAdmin {\n        require(_fee != newFee, \"Current fee is equal to new fee\");\n        _fee = newFee;\n    }\n\n    /**\n        @notice Used to manually withdraw funds from ERC safes.\n        @param handlerAddress Address of handler to withdraw from.\n        @param tokenAddress Address of token to withdraw.\n        @param recipient Address to withdraw tokens to.\n        @param amount Either the amount of ERC20 tokens to release.\n     */\n    function adminWithdraw(\n        address handlerAddress,\n        address tokenAddress,\n        address recipient,\n        uint256 amount\n    ) external onlyAdmin {\n        IERCHandler handler = IERCHandler(handlerAddress);\n        handler.withdraw(tokenAddress, recipient, amount);\n    }\n\n    /**\n        @notice Initiates a transfer using a specified handler contract.\n        @notice Only callable when Bridge is not paused.\n        @param destinationChainID ID of chain deposit will be bridged to.\n        @param resourceID ResourceID used to find address of handler to be used for deposit.\n        @param data Additional data to be passed to specified handler.\n        @notice Emits {Deposit} event.\n     */\n    function deposit(uint8 destinationChainID, bytes32 resourceID, bytes calldata data) external payable whenNotPaused {\n        require(msg.value == _fee, \"Incorrect fee supplied\");\n\n        address handler = _resourceIDToHandlerAddress[resourceID];\n        require(handler != address(0), \"resourceID not mapped to handler\");\n\n        uint64 depositNonce = ++_depositCounts[destinationChainID];\n        _depositRecords[depositNonce][destinationChainID] = data;\n\n        IDepositExecute depositHandler = IDepositExecute(handler);\n        depositHandler.deposit(resourceID, destinationChainID, depositNonce, msg.sender, data);\n\n        emit Deposit(destinationChainID, resourceID, depositNonce);\n    }\n\n    /**\n        @notice When called, {msg.sender} will be marked as voting in favor of proposal.\n        @notice Only callable by relayers when Bridge is not paused.\n        @param chainID ID of chain deposit originated from.\n        @param depositNonce ID of deposited generated by origin Bridge contract.\n        @param dataHash Hash of data provided when deposit was made.\n        @notice Proposal must not have already been passed or executed.\n        @notice {msg.sender} must not have already voted on proposal.\n        @notice Emits {ProposalEvent} event with status indicating the proposal status.\n        @notice Emits {ProposalVote} event.\n     */\n    function voteProposal(uint8 chainID, uint64 depositNonce, bytes32 resourceID, bytes32 dataHash) external onlyRelayers whenNotPaused {\n\n        uint72 nonceAndID = (uint72(depositNonce) << 8) | uint72(chainID);\n        Proposal storage proposal = _proposals[nonceAndID][dataHash];\n\n        require(_resourceIDToHandlerAddress[resourceID] != address(0), \"no handler for resourceID\");\n        require(uint(proposal._status) <= 1, \"proposal already passed/executed/cancelled\");\n        require(!_hasVotedOnProposal[nonceAndID][dataHash][msg.sender], \"relayer already voted\");\n\n        if (uint(proposal._status) == 0) {\n            ++_totalProposals;\n            _proposals[nonceAndID][dataHash] = Proposal({\n                _resourceID : resourceID,\n                _dataHash : dataHash,\n                _yesVotes : new address[](1),\n                _noVotes : new address[](0),\n                _status : ProposalStatus.Active,\n                _proposedBlock : block.number\n                });\n\n            proposal._yesVotes[0] = msg.sender;\n            emit ProposalEvent(chainID, depositNonce, ProposalStatus.Active, resourceID, dataHash);\n        } else {\n            if (sub(block.number, proposal._proposedBlock) > _expiry) {\n                // if the number of blocks that has passed since this proposal was\n                // submitted exceeds the expiry threshold set, cancel the proposal\n                proposal._status = ProposalStatus.Cancelled;\n                emit ProposalEvent(chainID, depositNonce, ProposalStatus.Cancelled, resourceID, dataHash);\n            } else {\n                require(dataHash == proposal._dataHash, \"datahash mismatch\");\n                proposal._yesVotes.push(msg.sender);\n\n\n            }\n\n        }\n        if (proposal._status != ProposalStatus.Cancelled) {\n            _hasVotedOnProposal[nonceAndID][dataHash][msg.sender] = true;\n            emit ProposalVote(chainID, depositNonce, proposal._status, resourceID);\n\n            // If _depositThreshold is set to 1, then auto finalize\n            // or if _relayerThreshold has been exceeded\n            if (_relayerThreshold <= 1 || proposal._yesVotes.length >= _relayerThreshold) {\n                proposal._status = ProposalStatus.Passed;\n\n                emit ProposalEvent(chainID, depositNonce, ProposalStatus.Passed, resourceID, dataHash);\n            }\n        }\n\n    }\n\n    /**\n        @notice Executes a deposit proposal that is considered passed using a specified handler contract.\n        @notice Only callable by relayers when Bridge is not paused.\n        @param chainID ID of chain deposit originated from.\n        @param depositNonce ID of deposited generated by origin Bridge contract.\n        @param dataHash Hash of data originally provided when deposit was made.\n        @notice Proposal must be past expiry threshold.\n        @notice Emits {ProposalEvent} event with status {Cancelled}.\n     */\n    function cancelProposal(uint8 chainID, uint64 depositNonce, bytes32 dataHash) public onlyAdminOrRelayer {\n        uint72 nonceAndID = (uint72(depositNonce) << 8) | uint72(chainID);\n        Proposal storage proposal = _proposals[nonceAndID][dataHash];\n\n        require(proposal._status != ProposalStatus.Cancelled, \"Proposal already cancelled\");\n        require(sub(block.number, proposal._proposedBlock) > _expiry, \"Proposal not at expiry threshold\");\n\n        proposal._status = ProposalStatus.Cancelled;\n        emit ProposalEvent(chainID, depositNonce, ProposalStatus.Cancelled, proposal._resourceID, proposal._dataHash);\n\n    }\n\n    /**\n        @notice Executes a deposit proposal that is considered passed using a specified handler contract.\n        @notice Only callable by relayers when Bridge is not paused.\n        @param chainID ID of chain deposit originated from.\n        @param resourceID ResourceID to be used when making deposits.\n        @param depositNonce ID of deposited generated by origin Bridge contract.\n        @param data Data originally provided when deposit was made.\n        @notice Proposal must have Passed status.\n        @notice Hash of {data} must equal proposal's {dataHash}.\n        @notice Emits {ProposalEvent} event with status {Executed}.\n     */\n    function executeProposal(uint8 chainID, uint64 depositNonce, bytes calldata data, bytes32 resourceID) external onlyRelayers whenNotPaused {\n        address handler = _resourceIDToHandlerAddress[resourceID];\n        uint72 nonceAndID = (uint72(depositNonce) << 8) | uint72(chainID);\n        bytes32 dataHash = keccak256(abi.encodePacked(handler, data));\n        Proposal storage proposal = _proposals[nonceAndID][dataHash];\n\n        require(proposal._status == ProposalStatus.Passed, \"proposal already transferred\");\n        require(dataHash == proposal._dataHash, \"data doesn't match datahash\");\n\n        proposal._status = ProposalStatus.Executed;\n\n        IDepositExecute depositHandler = IDepositExecute(_resourceIDToHandlerAddress[proposal._resourceID]);\n        depositHandler.executeProposal(proposal._resourceID, data);\n\n        emit ProposalEvent(chainID, depositNonce, proposal._status, proposal._resourceID, proposal._dataHash);\n    }\n\n    /**\n        @notice Transfers eth in the contract to the specified addresses. The parameters addrs and amounts are mapped 1-1.\n        This means that the address at index 0 for addrs will receive the amount (in WEI) from amounts at index 0.\n        @param addrs Array of addresses to transfer {amounts} to.\n        @param amounts Array of amonuts to transfer to {addrs}.\n     */\n    function transferFunds(address payable[] calldata addrs, uint[] calldata amounts) external onlyAdmin {\n        require(addrs.length == amounts.length, \"length of address and amounts dismatch\");\n        uint addrCount = addrs.length;\n        for (uint i = 0; i < addrCount; i++) {\n            addrs[i].transfer(amounts[i]);\n        }\n    }\n\n}\n",
  "sourcePath": "/home/selendra/Project/bridge-cli/solidity-contract/contracts/Bridge.sol",
  "compiler": {
    "name": "solc",
    "version": "0.8.0+commit.c7dfd78e.Emscripten.clang"
  },
  "schemaVersion": "3.4.9",
  "updatedAt": "2022-09-15T01:30:46.509Z",
  "devdoc": {
    "author": "ChainSafe Systems.",
    "kind": "dev",
    "methods": {
      "adminAddRelayer(address)": {
        "params": {
          "relayerAddress": "Address of relayer to be added."
        }
      },
      "adminChangeFee(uint256)": {
        "params": {
          "newFee": "Value {_fee} will be updated to."
        }
      },
      "adminChangeRelayerThreshold(uint256)": {
        "params": {
          "newThreshold": "Value {_relayerThreshold} will be changed to."
        }
      },
      "adminRemoveRelayer(address)": {
        "params": {
          "relayerAddress": "Address of relayer to be removed."
        }
      },
      "adminSetBurnable(address,address)": {
        "params": {
          "handlerAddress": "Address of handler resource will be set for.",
          "tokenAddress": "Address of contract to be called when a deposit is made and a deposited is executed."
        }
      },
      "adminSetResource(address,bytes32,address)": {
        "params": {
          "handlerAddress": "Address of handler resource will be set for.",
          "resourceID": "ResourceID to be used when making deposits.",
          "tokenAddress": "Address of contract to be called when a deposit is made and a deposited is executed."
        }
      },
      "adminWithdraw(address,address,address,uint256)": {
        "params": {
          "amount": "Either the amount of ERC20 tokens to release.",
          "handlerAddress": "Address of handler to withdraw from.",
          "recipient": "Address to withdraw tokens to.",
          "tokenAddress": "Address of token to withdraw."
        }
      },
      "cancelProposal(uint8,uint64,bytes32)": {
        "params": {
          "chainID": "ID of chain deposit originated from.",
          "dataHash": "Hash of data originally provided when deposit was made.",
          "depositNonce": "ID of deposited generated by origin Bridge contract."
        }
      },
      "constructor": {
        "params": {
          "chainID": "ID of chain the Bridge contract exists on.",
          "initialRelayerThreshold": "Number of votes needed for a deposit proposal to be considered passed.",
          "initialRelayers": "Addresses that should be initially granted the relayer role."
        }
      },
      "deposit(uint8,bytes32,bytes)": {
        "params": {
          "data": "Additional data to be passed to specified handler.",
          "destinationChainID": "ID of chain deposit will be bridged to.",
          "resourceID": "ResourceID used to find address of handler to be used for deposit."
        }
      },
      "executeProposal(uint8,uint64,bytes,bytes32)": {
        "params": {
          "chainID": "ID of chain deposit originated from.",
          "data": "Data originally provided when deposit was made.",
          "depositNonce": "ID of deposited generated by origin Bridge contract.",
          "resourceID": "ResourceID to be used when making deposits."
        }
      },
      "getProposal(uint8,uint64,bytes32)": {
        "params": {
          "dataHash": "Hash of data to be provided when deposit proposal is executed.",
          "depositNonce": "ID of proposal generated by proposal's origin Bridge contract.",
          "originChainID": "Chain ID deposit originated from."
        },
        "returns": {
          "_0": "Proposal which consists of: - _dataHash Hash of data to be provided when deposit proposal is executed. - _yesVotes Number of votes in favor of proposal. - _noVotes Number of votes against proposal. - _status Current status of proposal."
        }
      },
      "getRoleAdmin(bytes32)": {
        "details": "Returns the admin role that controls `role`. See {grantRole} and {revokeRole}. To change a role's admin, use {_setRoleAdmin}."
      },
      "grantRole(bytes32,address)": {
        "details": "Grants `role` to `account`. If `account` had not been already granted `role`, emits a {RoleGranted} event. Requirements: - the caller must have ``role``'s admin role. May emit a {RoleGranted} event."
      },
      "hasRole(bytes32,address)": {
        "details": "Returns `true` if `account` has been granted `role`."
      },
      "isRelayer(address)": {
        "params": {
          "relayer": "Address to check."
        }
      },
      "paused()": {
        "details": "Returns true if the contract is paused, and false otherwise."
      },
      "renounceAdmin(address)": {
        "params": {
          "newAdmin": "Address that admin role will be granted to."
        }
      },
      "renounceRole(bytes32,address)": {
        "details": "Revokes `role` from the calling account. Roles are often managed via {grantRole} and {revokeRole}: this function's purpose is to provide a mechanism for accounts to lose their privileges if they are compromised (such as when a trusted device is misplaced). If the calling account had been revoked `role`, emits a {RoleRevoked} event. Requirements: - the caller must be `account`. May emit a {RoleRevoked} event."
      },
      "revokeRole(bytes32,address)": {
        "details": "Revokes `role` from `account`. If `account` had been granted `role`, emits a {RoleRevoked} event. Requirements: - the caller must have ``role``'s admin role. May emit a {RoleRevoked} event."
      },
      "supportsInterface(bytes4)": {
        "details": "See {IERC165-supportsInterface}."
      },
      "transferFunds(address[],uint256[])": {
        "params": {
          "addrs": "Array of addresses to transfer {amounts} to.",
          "amounts": "Array of amonuts to transfer to {addrs}."
        }
      },
      "voteProposal(uint8,uint64,bytes32,bytes32)": {
        "params": {
          "chainID": "ID of chain deposit originated from.",
          "dataHash": "Hash of data provided when deposit was made.",
          "depositNonce": "ID of deposited generated by origin Bridge contract."
        }
      }
    },
    "title": "Facilitates deposits, creation and votiing of deposit proposals, and deposit executions.",
    "version": 1
  },
  "userdoc": {
    "kind": "user",
    "methods": {
      "adminAddRelayer(address)": {
        "notice": "Grants {relayerAddress} the relayer role and increases {_totalRelayer} count.Only callable by an address that currently has the admin role.Emits {RelayerAdded} event."
      },
      "adminChangeFee(uint256)": {
        "notice": "Changes deposit fee.Only callable by admin."
      },
      "adminChangeRelayerThreshold(uint256)": {
        "notice": "Modifies the number of votes required for a proposal to be considered passed.Only callable by an address that currently has the admin role.Emits {RelayerThresholdChanged} event."
      },
      "adminPauseTransfers()": {
        "notice": "Pauses deposits, proposal creation and voting, and deposit executions.Only callable by an address that currently has the admin role."
      },
      "adminRemoveRelayer(address)": {
        "notice": "Removes relayer role for {relayerAddress} and decreases {_totalRelayer} count.Only callable by an address that currently has the admin role.Emits {RelayerRemoved} event."
      },
      "adminSetBurnable(address,address)": {
        "notice": "Sets a resource as burnable for handler contracts that use the IERCHandler interface.Only callable by an address that currently has the admin role."
      },
      "adminSetResource(address,bytes32,address)": {
        "notice": "Sets a new resource for handler contracts that use the IERCHandler interface, and maps the {handlerAddress} to {resourceID} in {_resourceIDToHandlerAddress}.Only callable by an address that currently has the admin role."
      },
      "adminUnpauseTransfers()": {
        "notice": "Unpauses deposits, proposal creation and voting, and deposit executions.Only callable by an address that currently has the admin role."
      },
      "adminWithdraw(address,address,address,uint256)": {
        "notice": "Used to manually withdraw funds from ERC safes."
      },
      "cancelProposal(uint8,uint64,bytes32)": {
        "notice": "Executes a deposit proposal that is considered passed using a specified handler contract.Only callable by relayers when Bridge is not paused.Proposal must be past expiry threshold.Emits {ProposalEvent} event with status {Cancelled}."
      },
      "constructor": {
        "notice": "Initializes Bridge, creates and grants {msg.sender} the admin role, creates and grants {initialRelayers} the relayer role."
      },
      "deposit(uint8,bytes32,bytes)": {
        "notice": "Initiates a transfer using a specified handler contract.Only callable when Bridge is not paused.Emits {Deposit} event."
      },
      "executeProposal(uint8,uint64,bytes,bytes32)": {
        "notice": "Executes a deposit proposal that is considered passed using a specified handler contract.Only callable by relayers when Bridge is not paused.Proposal must have Passed status.Hash of {data} must equal proposal's {dataHash}.Emits {ProposalEvent} event with status {Executed}."
      },
      "getProposal(uint8,uint64,bytes32)": {
        "notice": "Returns a proposal."
      },
      "isRelayer(address)": {
        "notice": "Returns true if {relayer} has the relayer role."
      },
      "renounceAdmin(address)": {
        "notice": "Removes admin role from {msg.sender} and grants it to {newAdmin}.Only callable by an address that currently has the admin role."
      },
      "transferFunds(address[],uint256[])": {
        "notice": "Transfers eth in the contract to the specified addresses. The parameters addrs and amounts are mapped 1-1. This means that the address at index 0 for addrs will receive the amount (in WEI) from amounts at index 0."
      },
      "voteProposal(uint8,uint64,bytes32,bytes32)": {
        "notice": "When called, {msg.sender} will be marked as voting in favor of proposal.Only callable by relayers when Bridge is not paused.Proposal must not have already been passed or executed.{msg.sender} must not have already voted on proposal.Emits {ProposalEvent} event with status indicating the proposal status.Emits {ProposalVote} event."
      }
    },
    "version": 1
  }
}